:04000000B1EF03F069
:08000800046ED8CF05F0E0CF33
:1000100006F00001E9CF0CF0EACF07F0E1CF08F0DD
:10002000E2CF09F0D9CF0AF0DACF0BF0F3CF12F01C
:10003000F4CF13F0FACF14F0F5CF15F0F6CF16F099
:10004000F7CF17F000C00EF001C00FF002C010F0A3
:1000500003C011F0F0A630EF00F0F0B01DEF03F098
:100060000EC000F00FC001F010C002F011C003F08C
:100070000CC0E9FF07C0EAFF078E08C0E1FF09C016
:10008000E2FF0AC0D9FF0BC0DAFF12C0F3FF13C0B2
:10009000F4FF14C0FAFF15C0F5FF16C0F6FF17C035
:1000A000F7FF045006C0E0FF05C0D8FF1000B60EF1
:1000B000006E036A026A016A325033103410351040
:1000C00002E1006A0DD0D89001BE09D03236333635
:1000D00034363536033602360136002EF4D7019E0B
:1000E00031EF03F03250D8B471D0006E3650D8B42E
:1000F0006DD0002604E3810E002668E204D07F0E56
:10010000005E64E363E033C03AF037503A1A338E4E
:10011000378E35503902F4CF3CF034503802F4CFEA
:1001200003F0F3CF3BF03902F3503C26F4503B226E
:10013000000E032235503802F3503C26F4503B2287
:10014000000E026A0322022233503902F3503B268A
:10015000F4500322000E022233503802F3500326DB
:10016000F4500222000E016A012235503702F3508A
:100170003B26F4500322000E0222012234503702A3
:10018000F3500326F4500222000E012233503702AE
:10019000F3500226F4500122002A01BE05D03B365E
:1001A0000336023601360006000E3BAE0AD0032AA3
:1001B00002220122015005E1025003E1035001E156
:1001C000002A3ABE018E3AAE019E04D0006A016A4E
:1001D000026A036A42EF03F03250D8B4A5D03E6EF3
:1001E0003650D8B4A1D03E5E05E37F0E3E26D8B08F
:1001F0009BD006D0810E3E5ED8A096D0D8B494D0C5
:100200003EC000F0016A026A036A3D6A33C03CF0F6
:100210003C8E34C03BF035C03AF0190E3E6E39507A
:100220003A5E0DE2010E3B5E0AE23C5E08E23D5E94
:1002300006E23D2A3C2A3B2A39503A2628D038503B
:100240003B5E12E2010E3C5E0FE23D5E0DE23D2A96
:100250003C2A38503B2639503A2619E33B2A17E10D
:100260003C2A15E13D2A13D0375080093C5E0EE24E
:10027000010E3D5E0BE23D2A375080093C26385086
:100280003B26E9E33C2AE7E13D2AE5D703803E2E01
:1002900001D00BD0D8903A363B363C363D36D8901C
:1002A0000336023601363F36BAD73FA006D0D89083
:1002B0000132023203323F3202D0000635E03FBE47
:1002C0001ED0D8903A363B363C363D3639503A5EF1
:1002D00007E2010E3B5E04E23C5E02E23D5E1AE391
:1002E00038503B5E05E2010E3C5E02E23D5E12E3E9
:1002F000375080093C5E03E2010E3D5E0BE3032AAA
:1003000009E1022A07E1012A05E1002A0DE0013294
:100310000232033233C03EF037503E1A3EAE02D0B6
:10032000018E06D0019E04D0006A016A026A036A47
:100330005BEF03F08E0E006E3250005E33C002F0B1
:1003400034C001F0028E005209E0D890025202E15E
:10035000015204E002320132002EF7D733AE05D04D
:10036000011E021E012AD8B4022A12003450016A6A
:10037000335C03E233C000F00CD0006A080E356E27
:10038000333600363450005CD8B0006E0136352E5E
:10039000F7D771EF03F08E0E006E33C001F032C05C
:1003A00002F0036A015209E102C001F0026A080E7C
:1003B000005E015202E1006A08D0D89001BE04D06C
:1003C000023601360006F9D7019E79EF03F0800E60
:1003D000D8B2371A3C6A3D6A33C03BF037503B1AFB
:1003E0003250D8B4DCD03A6E006E3650D8B4E0D07B
:1003F0003A5ED8B481D03DE337C040F0408E38C07B
:100400003FF039C03EF03D6AD89040323F323E3234
:100410003D323A2EF8D73BAE03D03C80DDD03C9045
:100420003A903C88EA6A350EE96EE9D03C983BBECA
:100430000AD03AA013D040323F323E323D32002A39
:10044000D8B4C5D00BD040BE0CD0D8903D363E3687
:100450003F3640360006D8B4BAD0F5D73C8C6BD0C6
:100460003C9C33C03BF033AE02D0408EA9D0409EBE
:10047000A7D036C03AF036C000F032503A5E33C0F2
:1004800040F0408E34C03FF035C03EF03D6AD89019
:1004900040323F323E323D323A2EF8D73BAE03D0A7
:1004A0003C829AD03C923A903C8AEA6A390EE96ED4
:1004B000A6D03C9A3BBE0AD03AA013D040323F327D
:1004C0003E323D32002AD8B482D00BD040BE0CD090
:1004D000D8903D363E363F3640360006D8B477D009
:1004E000F5D73C8E28D03C9E37C03BF037AE02D0CB
:1004F000408E66D0409E64D037C040F0408E38C0F9
:100500003FF039C03EF03BAE04D0409E3C8464D006
:100510003C943D6A3A90EA6A350EE96E70D03BBE73
:100520001CD033C03BF03AA006D040323F323E32BE
:100530003D32002A4CE03DAE0BD03E2A09E13F2A75
:1005400007E1402A05E140323F323E32002A3FE0D7
:100550003CBC86D73CBEC7D71CD0800E401A40AEEC
:1005600004D03AD037C03BF00AD033C03BF0405201
:1005700006E13F5204E13E5202E1006A21D040BE52
:1005800008D0D8903D363E363F364036002EF7D75D
:100590001ED03BAE02D0408E13D0409E11D036C04C
:1005A00000F037C040F038C03FF039C03EF008D00E
:1005B00032C000F033C040F034C03FF035C03EF0F0
:1005C00040C001F03FC002F03EC003F034D0006AEA
:1005D000016A026A036A2FD03D6A3E1E3F1E401E1A
:1005E0003D1E3D2A05E13E2A03E13F2A01E1402A62
:1005F0003CB015D73CB256D73CB48AD7B3D7EF50EE
:100600003E2605E33F2A03E1402AD8B43A80ED5262
:10061000EF503F2603E3402AD8B43A80ED52EF5022
:10062000EFBE01D0800A4026D8B03A803CB8FED652
:100630003CBA3FD774D78BEF03F080A209D0010EEC
:100640002526D8B0262AD8B4272AD8B4282AF5D700
:1006500028C035F027C034F026C033F025C032F072
:1006600026D503C035F002C034F001C033F000C01D
:1006700032F05A0E396EF50E386E790E376E7E0EE8
:10068000366E30D503C02CF002C02BF001C02AF02A
:1006900000C029F02CC035F02BC034F02AC033F054
:1006A00029C032F09A0E396E990E386E690E376E87
:1006B000840E366E91D503C030F002C02FF001C019
:1006C0002EF000C02DF030C035F02FC034F02EC019
:1006D00033F02DC032F02EDE01C033F00A0E346E3E
:1006E00045D601C023F023500A0DF350336A326E11
:1006F00052D6D88230C035F02FC034F02EC033F03F
:100700002DC032F003C039F002C038F001C037F01C
:1007100000C036F05CD603C035F002C034F001C032
:1007200033F000C032F006DE01C024F0286A276AE8
:10073000266A256AF09030EF00F0EA6A310EE96E21
:10074000EF500EE00F0E016E006A002EFED7012E54
:10075000FBD78F0E006E002EFED70000EF2EF2D7D3
:100760001200F86AD09E078E236A246A286A276AD4
:10077000266A256A2C6A2B6A2A6A296A306A2F6AD5
:100780002E6A2D6AC150C00B0F09C16E070EB46EE0
:100790003F0E196E060E1A6E5B0E1B6E4F0E1C6E10
:1007A000660E1D6E6D0E1E6E7D0E1F6E070E206E88
:1007B0007F0E216E670E226E060E926E9368946A0B
:1007C000956AD09EC00EF26EF086F18A809080808D
:1007D000270E006E002EFED700D08090800E826E15
:1007E000036A2450190FE96E000E0320EA6EEFCF62
:1007F00083FF010E316EA1DF400E826E036A23502B
:10080000190FE96E000E0320EA6EEFCF83FF010E91
:08081000316E93DFDCD7030019
:020000040030CA
:0E00000024CE3E1E0087A1000FC00FE00F406F
:00000001FF
;PIC18F4550
;CRC=6DFE  CREATED="30-ago.-22 18:50"
